:020000040800F2
:1000000000000120F1020008950100089901000894
:10001000AD010008B1010008C501000800000000A2
:10002000000000000000000000000000D9010008EE
:10003000DD01000800000000E1010008CD1E0008FD
:10004000E5010008E5010008E5010008E5010008F8
:10005000E5010008E5010008E5010008E5010008E8
:10006000E5010008E5010008E5010008E5010008D8
:10007000E5010008E5010008E5010008E5010008C8
:10008000E5010008E5010008E501000800000000A6
:10009000000000000000000000000000E501000872
:1000A000E5010008E5010008E5010008E501000898
:1000B000E5010008110D0008E5010008E501000850
:1000C000E5010008E5010008E5010008E501000878
:1000D000E5010008E5010008E50100080000000056
:1000E000E5010008E5010008E50100080000000046
:1000F000000000000000000000000000E501000812
:1001000000000000E5010008E5010008E501000825
:1001100000000000000000000000000000000000DF
:10012000E5010008E5010008E5010008E501000817
:10013000E5010008000000000000000000000000D1
:10014000000000000000000000000000E5010008C1
:10015000E5010008E5010008E5010008E5010008E7
:10016000E5010008E50100080000000000000000B3
:10017000000000000000000000000000000000007F
:1001800000000000E5010008000000000000000081
:10019000E501000800BEFEE71EF0040F0CBFEFF300
:1001A0000880EFF309807146564A104700BEFEE70B
:1001B0001EF0040F0CBFEFF30880EFF309807146C7
:1001C000514A10471EF0040F0CBFEFF30880EFF305
:1001D000098071464D4A104700BEFEE700BEFEE7AB
:1001E00000BEFEE700BEFEE700B583B000F068FA8F
:1001F000304B314A1360314A1360314906E052F8FE
:10020000041B43F8041B9842F9D861462D4B9942D0
:1002100005D20A684B6801F10C0C8868F3E7264B9D
:100220001A68294B9A4200D0FEE7244B1A68274BE4
:100230009A42F9D11F4B264A1360264A1360264A78
:1002400000E00246254B9A4209D2104650F8083B7E
:1002500051689942F5D9002243F8042BF9E71C4B69
:100260001B6813B91B4B1B6803B1FEE701F0EEFDE1
:10027000694601A800F014FA194C1A4BE41AA410AC
:10028000002504E0174B53F8253098470135AC4260
:10029000F8DC154C154BE41AA410002504E0134BB0
:1002A00053F8253098470135AC42F8DC00990198A5
:1002B00001F0F0FDBABADECA0000002014000020F0
:1002C0001003000828030008785634123254769838
:1002D00018000020AC0000202803000838030008A4
:1002E0003803000838030008380300083803000802
:1002F00008B5FFF779FF00BEFEE700BEFEE700BECF
:10030000FEE70000F7020008FB020008FF020008F9
:1003100020230008000000201800002020230008EF
:10032000000000100000001018000020B0000020A5
:080330000000001000000010A5
:10033800024A136801331360704700BFA800002009
:10034800014B1868704700BFA8000020002808DB90
:100358000901C9B200F1604000F5614080F800135E
:10036800704700F00F000901C9B2014B19547047DA
:1003780014ED00E000B500F00700C0F1070CBCF177
:10038800040F28BF4FF0040C031D062B0FD9C31E02
:100398004FF0FF3E0EFA0CF021EA000199400EFAE8
:1003A80003FE22EA0E0241EA02005DF804FB002384
:1003B800EEE700000138B0F1807F0BD24FF0E02368
:1003C8005861054AF02182F823100020986107221D
:1003D8001A6170470120704700ED00E0014B0122CF
:1003E8001A62704700000E4208B5194B9B6803F06B
:1003F8000C03042B27D0082B27D1154B5A6802F081
:100408003F025B6813F4800F12D0114B5968C1F397
:10041800881110480023A1FB000101F061FD0C4B7D
:100428005B68C3F3014301335B00B0FBF3F008BD25
:10043800074B5968C1F3881107480023A1FB000145
:1004480001F04EFDEBE70348F1E70348EFE700BF93
:100458000038024040787D010024F400014B186800
:10046800704700BF1000002038B504460268D36802
:1004780023F0A003D360FFF763FF05462368DB681A
:1004880013F0200F07D1FFF75BFF401BB0F57A7F11
:10049800F4D9032000E0002038BD38B50368DA68D5
:1004A80012F0400F01D0002038BD04464FF0FF3253
:1004B800DA60FFF745FF05462368DB6813F0400F55
:1004C80007D1FFF73DFF431BB3F57A7FF4D903202B
:1004D800EAE70020E8E7002302E001330A38C0B267
:1004E8000928FAD81B01DBB218437047030903EB4C
:1004F800830300F00F0000EB4300C0B27047000018
:100508000368254A90420ED0B0F1804F0BD0A2F577
:100518007C42904207D002F58062904203D002F5F7
:100528008062904203D123F070034A6813431A4A49
:1005380090421AD0B0F1804F17D0A2F57C42904279
:1005480013D002F5806290420FD002F5806290428B
:100558000BD002F59A32904207D002F580629042A1
:1005680003D002F58062904203D123F44073CA6835
:10057800134323F080034A69134303608B68C36203
:100588000B688362044B984202D001234361704791
:100598000B690363F9E700BF0000014003681A69AB
:1005A80012F0020F0CD0DA6812F0020F08D06FF0C8
:1005B80002021A610123037703689B69002303770A
:1005C80003681A6912F0040F0CD0DA6812F0040FED
:1005D80008D06FF004021A610223037703689B694D
:1005E8000023037703681A6912F0080F0CD0DA6841
:1005F80012F0080F08D06FF008021A61042303777D
:100608000368DB690023037703681A6912F0100F87
:100618000CD0DA6812F0100F08D06FF010021A61CF
:10062800082303770368DB690023037703681A69E3
:1006380012F0010F03D0DA6812F0010F1BD1036822
:100648001A6912F0800F03D0DA6812F0800F16D101
:1006580003681A6912F0400F03D0DA6812F0400FED
:1006680011D103681A6912F0200F03D0DA6812F06A
:10067800200F0CD170476FF001021A61DFE76FF0AD
:1006880080021A61E4E76FF040021A61E9E76FF04F
:1006980020021A61EEE7000001230360014B0B60A2
:1006A800704700BF04000020024B4FF000629A60C0
:1006B800704700BF00ED00E008B5FFF7F5FF024AFC
:1006C800024B9A6008BD00BF0000000800ED00E082
:1006D800224B9B6803F00C03042B11D0082B13D07A
:1006E800002B37D11E4B1F4A1A601C4B9B68C3F363
:1006F80003131D4AD15C1A4A1368CB401360704734
:10070800174B1A4A1A60F0E7144B59685A6802F0F6
:100718003F0211F4800F13D0144BB3FBF2F30F4ACE
:100728005268C2F3881202FB03F30C4A5268C2F300
:10073800014201325200B3FBF2F3094A1360D4E7D5
:10074800084BB3FBF2F3054A5268C2F3881202FB66
:1007580003F3EAE7024B034A1A60C6E7003802408F
:10076800100000200024F4000823000840787D01D0
:10077800054A0023137053709370D370137153712B
:10078800024A1370704700BFA00000209C000020A0
:10079800002304E0C15C034AD1540133DBB2052BCA
:1007A800F8D97047A0000020FEE7000008B5C31E76
:1007B800042B0FD8094AD36823F4E0631B041B0CED
:1007C800000200F4E060034343F0BF6343F40033E6
:1007D800D36008BD92210248FFF7E6FF00ED00E074
:1007E8001422000810B50F2A0DD804460F290ED878
:1007F800094BD868C0F30220FFF7BCFD014620462C
:10080800FFF7A4FD10BDAA210448FFF7CDFFAB21D7
:100818000248FFF7C9FF00BF00ED00E014220008FE
:1008280010B504460C4B18680C4BA3FB003080092C
:10083800FFF7C0FD68B90F2C01D901200AE000229A
:1008480021464FF0FF30FFF7CDFF054B1C6000201D
:1008580000E0012010BD00BF10000020D34D621041
:100868000C00002008B5002808DB00F01F02400932
:1008780001239340034A42F8203008BDBE210248B4
:10088800FFF792FF00E100E01422000808B50428F1
:1008980007D068B94FF0E022136923F0040313610D
:1008A80008BD4FF0E022136943F004031361F7E732
:1008B80040F2C9110148FFF777FF00BF1422000872
:1008C800F0B583B0984B984217D003F580639842EF
:1008D80013D003F5806398420FD003F580639842E4
:1008E8000BD003F58063984207D003F54063984224
:1008F80003D0B3218D48FFF757FF0B689AB212B1A6
:10090800B3F5803F03D3B4218848FFF74DFF4B6808
:10091800874A93420AD013D8A2F58012934205D091
:100928000AD8032B02D9113B012B14D88B68022B50
:1009380015D84FF0000C57E07E4A9342F6D00AE0F3
:100948007D4A9342F2D002F580329342EED0A2F56E
:1009580080129342EAD0B5217448FFF725FFB621EB
:100968007248FFF721FFC8217048FFF71DFFE021FB
:100978006E48FFF719FF042300E00023A3402B4330
:1009880002326E4C44F822306D4B1A686FEA0E033F
:1009980022EA0E044D6815F4803F01D04EEA0204A5
:1009A800674A1460526803EA02044D6815F4003F70
:1009B80001D04EEA0204624A5460926803EA0204D3
:1009C8004D6815F4801F01D04EEA02045C4A946019
:1009D800D26813404C6814F4001F01D04EEA020399
:1009E800574AD3600CF1010CBCF10F0F00F299804B
:1009F800012303FA0CF30A6802EA030E33EA02023F
:100A0800F0D14A68541E012C03D9112A01D0122AA8
:100A180017D1CA68032AA6D884684FEA4C0503226E
:100A2800AA4024EA0204CA68AA40224382604268B3
:100A380022EA03024B68C3F3001303FA0CF31343CF
:100A48004360C2684FEA4C040323A340DD4322EA13
:100A580003028B68A3401343C3604B68022B01D089
:100A6800122B1CD10B694BB10F2B80D849F2F672AF
:100A780022FA03F313F0010F3FF479AF4FEADC02D7
:100A8800083250F822700CF00706B6000F23B34066
:100A980027EA03070B69B3403B4340F82230036859
:100AA8001D404B6803F00303A3402B4303604B68CE
:100AB80013F0805F96D000230193224B5A6C42F4C6
:100AC80080425A645B6C03F480430193019B4FEAB4
:100AD8009C02941C194B53F824500CF00304A400F6
:100AE8000F23A34025EA03050F4B98423FF445AF77
:100AF80003F5806398420ED003F5806398420CD0CA
:100B080003F5806398420AD003F5806398423FF466
:100B180032AF072332E7012330E702232EE703230E
:100B28002CE703B0F0BD00BF0000024048220008D7
:100B380000002110000012100000311000380140A0
:100B4800003C01400038024008B521B1012A07D80D
:100B58005AB1816108BD40F29F110548FFF724FE94
:100B68004FF4D0710248FFF71FFE0B048361F1E7D1
:100B78004822000838B50446184D00F0010201214A
:100B88002846FFF7E1FFC4F3400202212846FFF799
:100B9800DBFFC4F3800204212846FFF7D5FFC4F326
:100BA800C00208212846FFF7CFFFC4F30012102126
:100BB8002846FFF7C9FFC4F3401220212846FFF753
:100BC800C3FFC4F3801240212846FFF7BDFFE209A6
:100BD80080212846FFF7B8FF38BD00BF000002405B
:100BE80000B585B003463F228DF8002006228DF817
:100BF80001205B228DF802204F228DF80320662207
:100C08008DF804206D228DF805207D228DF80620B0
:100C180007228DF807207F228DF808206F228DF893
:100C2800092077228DF80A207C228DF80B203922A2
:100C38008DF80C205E228DF80D2079228DF80E207B
:100C480071228DF80F2000F00F0210326A4412F85A
:100C5800100C13F0400F00D0402013F0800F04D187
:100C6800FFF788FF05B05DF804FB40F08000F7E768
:100C780030B585B005464FF40073ADF804304FF435
:100C88008063ADF806304FF48053ADF808304FF468
:100C98000053ADF80A304FF48043ADF80C304FF4F0
:100CA8000043ADF80E3000240AE0012204AB03EB48
:100CB800440333F80C1C0648FFF746FF0134E4B23E
:100CC800052C03D8AC42F0D00022EFE705B030BDC8
:100CD8000004024010B50A4A13780133DBB21370DE
:100CE800052B02D9134600221A70054C2378054AB1
:100CF800D05CFFF775FF2078FFF7BAFF10BD00BF83
:100D08009C000020A000002008B50348FFF746FC1F
:100D1800FFF7E0FF08BD00BF5C00002000B587B00A
:100D280000240094104B1A6B42F004021A631B6BE8
:100D380003F004030093009B01A901944C608C60AC
:100D4800CC600C614FF400560196012302930323F3
:100D58000493064D2846FFF7B3FD22463146284640
:100D6800FFF7F2FEFEE700BF00380240000802402D
:100D7800002800F04F8270B582B0044603680F2B3C
:100D880039D8036813F0010F4BD043682BB1B3F582
:100D9800803F02D0B3F5A02F31D19F4B9B6803F061
:100DA8000C03042B34D09C4B9B6803F00C03082BDA
:100DB80029D06368B3F5803F5DD0B3F5A02F60D02C
:100DC800954B1A6822F480321A601A6822F480223D
:100DD8001A606368002B5ED0FFF7B2FA05468E4BA7
:100DE8001B6813F4003F1CD1FFF7AAFA401B6428C4
:100DF800F5D9032015E2E8218848FFF7D5FCED2155
:100E08008648FFF7D1FC844B5B6813F4800FD0D081
:100E1800814B1B6813F4003F03D06368002B00F07C
:100E2800FB81236813F0020F64D0E368012B41D8DB
:100E380023691F2B43D8784B9B6813F00C0F48D0BD
:100E4800754B9B6803F00C03082B3DD0E368002B1F
:100E580075D0734B01221A60FFF772FA05466E4B84
:100E68001B6813F0020F61D1FFF76AFA401B0228D2
:100E7800F5D90320D5E1684A136843F48033136039
:100E8800A7E7654B1A6842F480221A601A6842F490
:100E980080321A609DE7FFF753FA05465E4B1B68E0
:100EA80013F4003FBDD0FFF74BFA401B6428F5D977
:100EB8000320B6E140F21F115848FFF775FC4FF4C4
:100EC80090715648FFF770FC534B5B6813F4800F22
:100ED800BCD1514B1B6813F0020F03D0E368012B00
:100EE80040F09C814C4A1368216923F0F80343EAD7
:100EF800C1031360236813F0080F4AD06369012BFC
:100F08002FD8636993B3464B0122C3F8802EFFF7AD
:100F180017FA0546404B5B6F13F0020F39D1FFF704
:100F28000FFA401B0228F5D903207AE13A4A1368E0
:100F3800216923F0F80343EAC1031360DAE7384B69
:100F480000221A60FFF7FCF90546334B1B6813F0C3
:100F5800020FCFD0FFF7F4F9401B0228F5D9032080
:100F68005FE14FF4B0712D48FFF71EFC2C4B0022B7
:100F7800C3F8802EFFF7E4F90546274B5B6F13F0A3
:100F8800020F06D0FFF7DCF9401B0228F5D9032031
:100F980047E1236813F0040F00F08480A368012B55
:100FA80001D9052B40D11C4B1B6C13F0805F40D13D
:100FB80000230193184B1A6C42F080521A641B6C80
:100FC80003F080530193019B0125164B1B6813F412
:100FD800807F30D0A368012B41D0052B45D00E4B24
:100FE8001A6F22F001021A671A6F22F004021A67B8
:100FF800A368002B43D0FFF7A3F90646064B1B6FE7
:1010080013F0020F4CD1FFF79BF9801B41F2883394
:101018009842F3D9032004E10038024078220008FE
:1010280000004742007000404FF4C6718448FFF743
:10103800BBFB0025C9E7834A136843F48073136038
:10104800FFF77EF906467F4B1B6813F4807FC1D1FA
:10105800FFF776F9801B0228F5D90320E1E07A4AE8
:10106800136F43F001031367C2E7774B1A6F42F01F
:1010780004021A671A6F42F001021A67B8E7FFF70D
:101088005FF90646704B1B6F13F0020F08D0FFF78D
:1010980057F9801B41F288339842F3D90320C0E006
:1010A800002D3BD1A369022B3ED8A369002B00F089
:1010B800B780654A926802F00C02082A00F08A801C
:1010C800022B73D1E36913B1B3F5800F31D1236AD1
:1010D8003F2B33D8636A323BB3F5BF7F33D8A26A5C
:1010E800082A35D84FF4AA73D34013F0010F2FD034
:1010F800E36A023B0D2B30D8544B00221A66FFF7E7
:101108001FF90546504B1B6813F0007F2AD0FFF7E4
:1011180017F9401B0228F5D9032082E04A4A136CCC
:1011280023F080531364BDE740F2CF114448FFF722
:101138003BFB4FF4EC714248FFF736FB40F2D91104
:101148003F48FFF731FB4FF4ED713D48FFF72CFBAB
:1011580040F2DB113A48FFF727FB4FF4EE713848AD
:10116800FFF722FBE369226A1343626A43EA8213A8
:10117800A26A5208013A43EA0243E26A43EA026376
:10118800314A5360314B01221A66FFF7D9F80446F9
:101198002D4B1B6813F0007F06D1FFF7D1F8031B16
:1011A800022BF5D903203CE000203AE0274B00222F
:1011B8001A66FFF7C5F80446234B1B6813F0007F37
:1011C80006D0FFF7BDF8001B0228F5D9032028E058
:1011D800002026E0012B26D01B4B5B6803F480011E
:1011E800E269914221D103F03F02216A8A421ED16D
:1011F800616A47F6C0721A408A421AD103F4403233
:10120800A16A8A4217D103F07063E26A934214D14B
:10121800002006E001207047012002E0012000E0E4
:10122800002002B070BD0120FBE70120F9E7012092
:10123800F7E70120F5E70120F3E70120F1E700BF18
:101248007822000800700040003802400000474241
:10125800002800F0F48070B50C4605460368013B91
:101268000E2B32D8072935D8794B1B6803F00F03AA
:101278008B4208D2CBB2764A1370136803F00F037F
:101288008B4240F0DE802B6813F0020F30D013F051
:10129800040F04D06F4A936843F4E05393602B68BB
:1012A80013F0080F04D06B4A936843F460439360CB
:1012B800AB68B3B1C02B14D047D8A02B11D00ED82F
:1012C800802B0ED0902B0CD045E040F25121624883
:1012D800FFF76AFA40F252215F48FFF765FAB02B30
:1012E80039D15C4A936823F0F003A9680B439360F3
:1012F8002B6813F0010F46D06B68032B30D86A684F
:10130800012A32D0931E012B36D9524B1B6813F099
:10131800020F00F098804F498B6823F003031343B2
:101328008B60FFF70DF806464A4B9B6803F00C03E9
:101338006A68B3EB820F26D0FFF702F8801B41F2F0
:1013480088339842F0D903206EE0E02BC9D0F02B07
:10135800C7D0D02BC5D040F275213F48FFF724FAFB
:101368004FF41F713C48FFF71FFA3A4B1B6813F400
:10137800003FD0D1012057E0364B1B6813F0007FA7
:10138800C9D1012050E0324B1B6803F00F03A34280
:1013980007D9E2B22E4B1A701B6803F00F03A34261
:1013A80053D12B6813F0040F14D0EB685BB1B3F57D
:1013B800805F08D0B3F5A05F05D0B3F5C05F02D059
:1013C800B3F5E05F31D1234A936823F4E053E96829
:1013D8000B4393602B6813F0080F15D02B695BB192
:1013E800B3F5805F08D0B3F5A05F05D0B3F5C05F53
:1013F80002D0B3F5E05F1DD1164A9368296923F43A
:10140800604343EAC1039360FEF7EEFF114B9B680C
:10141800C3F30313114AD35CD840114B1860114B26
:101428001868FFF7FDF9002070BD40F2BA210A489C
:10143800FFF7BAF940F2C1210748FFF7B5F90120D3
:1014480070470120F0E70120EEE70120ECE700BF3C
:10145800003C0240003802407822000808230008B7
:10146800100000200C00002070B594B000240194F6
:10147800214B1A6C42F080521A641B6C03F08053A3
:101488000193019B02941D4B1A6842F440421A6072
:101498001B6803F440430293029B012308934FF413
:1014A800803309934FF480030F93192310934FF45B
:1014B800A8731193042612960723139302250E95F9
:1014C80008A8FFF755FC0F230393049505944FF4E0
:1014D800805306930794294603A8FFF7B9FEFEF741
:1014E800BDFF074BA3FB00308009FEF763FF3046C2
:1014F800FFF7CCF914B070BD00380240007000400E
:10150800D34D6210F8B5012A2CD805460C46CB6895
:10151800B3F5003F03D0B3F5803F00D03BBB236950
:1015280013B1B3F5802F27D12B7F012B00F0E38077
:1015380001232B7702236B77002A40F081802B68E8
:101548009B6813F0400F21D02378013BDBB20B2BB3
:1015580017D8E378FBB1402B1DD04FF43A71674898
:10156800FFF722F940F2DA216448FFF71DF940F24B
:10157800DB216248FFF718F94FF437715F48FFF72E
:1015880013F940F2E7215D48FFF70EF90023E370F5
:101598002378172B45D863783B2B47D8A3783B2B68
:1015A80049D82078FEF797FF06046078FEF793FF86
:1015B80046EA0026A078FEF78EFF0643E37846EA5F
:1015C80003462B68CA225A622B6853225A6228465D
:1015D800FEF763FF0746002876D12B6806F07F36B2
:1015E80026F0FE461E602A68936823F480239360E1
:1015F80029688B68E2682069024313438B602A6874
:10160800D36823F08003D3602B689B6813F0200F06
:1016180063D02B68FF225A6201236B7700232B7754
:101628006AE040F2ED213548FFF7BEF840F2EF21BD
:101638003248FFF7B9F84FF43C713048FFF7B4F877
:101648002B689B6813F0400F13D02078FEF74EFFED
:1016580008B10C2804D940F2FB212848FFF7A4F868
:10166800E3786BB1402B0BD04FF43F712348FFF761
:101678009BF80023E3702078FEF738FF172814D86A
:101688006078FEF733FF3B2814D8A078FEF72EFFCA
:101698003B2814D823786678360246EA0346A378AE
:1016A8001E43E37846EA03468BE740F201311348CC
:1016B800FFF77AF840F203311048FFF775F84FF456
:1016C80041710E48FFF770F82B68FF225A62042315
:1016D8006B7700232B7701270EE02846FEF7C4FE20
:1016E800002896D02B68FF225A6204236B770023C8
:1016F8002B77012700E002273846F8BDA82200080A
:1017080070B5012A26D80C4603689B6A4B600368AB
:101718001B69C3F30E038B6003681D68C5F306419C
:10172800C5F305402070C5F30626667005F07F05F1
:10173800A57001F04003E37052B9FEF7D7FE2070A0
:101748003046FEF7D3FE60702846FEF7CFFEA07045
:10175800002070BD40F25D310148FFF725F800BF59
:10176800A822000870B5012A5AD804460D46037FFE
:10177800012B00F0B08001230377022343773AB9A5
:101788004B7813F0100F03D003F0EF030A334B70BC
:101798002B78013BDBB2062B47D8002A59D1EB78CE
:1017A800632B47D86B78013BDBB20B2B47D8AB7860
:1017B800013BDBB21E2B47D8E878FEF78CFE060407
:1017C8006878FEF788FE46EA0026A878FEF783FECA
:1017D80006432B7846EA43362368CA225A622368AE
:1017E80053225A622046FEF758FE054600285BD170
:1017F800236826F07F4626F0C0065E602268D3681C
:1018080023F08003D36023689B6813F0200F54D023
:101818002368FF225A6201236377002323775BE062
:1018280040F28A312D48FEF7BFFF40F296312B482F
:10183800FEF7BAFF40F29A312848FEF7B5FF40F2AA
:101848009B312648FEF7B0FF4FF467712348FEF737
:10185800ABFFE878FEF74AFE63280AD86878FEF7F7
:1018680045FE08B10C2809D940F2A6311B48FEF7FD
:101878009BFF40F2A5311948FEF796FFA878FEF7BE
:1018880035FE08B11F2804D940F2A7311348FEF7E6
:101898008BFFEB786E78360246EA0346AB781E4338
:1018A8002B7846EA433697E72368FF225A620423D7
:1018B80063770023237701250EE02046FEF7D4FD49
:1018C8000028A5D02368FF225A62042363770023E7
:1018D8002377012500E00225284670BDA8220008CC
:1018E80070B5012A1CD80C4603685B68C3F307402F
:1018F800C870C3F304264E7003F03F058D70C3F320
:1019080042330B7052B9FEF7F1FDE0703046FEF736
:10191800EDFD60702846FEF7E9FDA070002070BD5F
:101928004FF47E710148FEF73FFF00BFA822000870
:1019380000285CD010B5044603682E4A93421FD095
:10194800B3F1804F1CD0A2F57C42934218D002F527
:101958008062934214D002F58062934210D002F55F
:101968009A3293420CD002F58062934208D002F575
:101978008062934204D04FF489711F48FEF714FF28
:10198800A3683BB1102B05D0202B03D0402B01D0EE
:10199800602B1AD123692BB1B3F5807F02D0B3F540
:1019A800007F17D1A3690BB1802B18D194F83D3073
:1019B800D3B1022384F83D30211D2068FEF7A0FD35
:1019C800012384F83D30002010BD40F213110A486D
:1019D800FEF7EAFE4FF48A710748FEF7E5FE40F28B
:1019E80015110548FEF7E0FE84F83C30E1E70120D8
:1019F800704700BF00000140D822000808B50368FE
:101A0800194A93421FD0B3F1804F1CD0A2F57C42F3
:101A1800934218D002F58062934214D002F5806296
:101A2800934210D002F59A3293420CD002F58062AC
:101A3800934208D002F58062934204D040F2B91173
:101A48000A48FEF7B1FE0268D36843F00103D36089
:101A58000268936803F00703062B03D0136843F06A
:101A680001031360002008BD00000140D8220008CF
:101A780000B583B000220192184B196C41F00201A5
:101A880019641B6C03F002030193019B1448154B66
:101A98000360154B1B681549A1FB03139B09013B08
:101AA80043600A23C3600261826042618261FFF77A
:101AB8003FFF70B9002211461D20FEF793FE1D203E
:101AC800FEF7D0FE0648FFF799FF20B903B05DF88E
:101AD80004FBFFF723F9FFF721F900BF00380240A4
:101AE8005C0000200004004010000020D34D62106C
:101AF8000A4B9A7802F00F0202709A781209427023
:101B08005A7802F00F0181701209C2701B7803F035
:101B18000F0202711B094371704700BF4800002083
:101B280008B5012207490848FFF7DAFE30B9012253
:101B380006490548FFF7E4FD10B908BDFFF7EEF8C0
:101B4800FFF7ECF8240000202800002048000020BF
:101B580070B58EB0002400941E4B1A6C42F080526F
:101B68001A641A6C02F080520092009A01941A6C5E
:101B780042F080521A641B6C03F080530193019B5E
:101B8800FEF72CFC144B0126C3F8406EC3F8404EF8
:101B980002AD30222146284600F09AF90C23029320
:101BA80004962846FFF7E4F890B90A4B9A6822F49D
:101BB800F8129A609A6822F4F8129A601A6F42F43E
:101BC80080721A67044B0122C3F83C2E0EB070BD18
:101BD800FFF7A4F8003802400000474238B5002853
:101BE80000F09B8004464368402B01D0002B5FD156
:101BF800A3687F2B60D8E368B3F5004F61D22369EF
:101C080043B1B3F5001F05D0B3F5800F02D0B3F58B
:101C1800C00F5BD1636913B1B3F5801F5BD1A369B2
:101C280013B1B3F5802F5BD1637F002B5DD0022306
:101C380063772368CA225A62236853225A6220466D
:101C4800FEF72BFC0546002854D12268936823F43C
:101C5800E00323F04003936021688A686368206981
:101C680003436069034313438B602368E2681A6186
:101C780022681369A16843EA014313612268D368A3
:101C880023F08003D36023689B6813F0200F38D0BB
:101C98002268136C23F4802313642268136CA169EF
:101CA8000B4313642368FF225A620123637735E0EC
:101CB800FF211B48FEF778FD4FF480711848FEF7A6
:101CC80073FD40F201111648FEF76EFD4FF4817165
:101CD8001348FEF769FD40F203111148FEF764FD51
:101CE8004FF482710E48FEF75FFD23772046FFF719
:101CF8002FFF9CE72368FF225A620423637701259C
:101D08000CE02046FEF7B0FB0028C1D02368FF2274
:101D18005A6204236377012500E00125284638BD6F
:101D2800A822000808B51748174B03607F23836073
:101D3800FF23C360002343600361FFF74FFFD0B95F
:101D480012491823CB7012234B701F238B70022368
:101D58000B7000220B48FFF705FD70B90C491723DB
:101D68000B703B234B702D238B7000220548FFF727
:101D7800C9FB20B908BDFEF7D1FFFEF7CFFFFEF77C
:101D8800CDFF00BF280000200028004024000020CC
:101D98004800002070B588B0002301931A4A116BDF
:101DA80041F001011163116B01F0010101910199E9
:101DB8000293116B41F002011163126B02F00202EF
:101DC8000292029A03AC0393049305930693079334
:101DD800FF230393012504950326069605952146BE
:101DE8000A48FEF76DFD4FF4764303930495069673
:101DF800059521460648FEF763FDFFF739FEFFF714
:101E080091FF08B070BD00BF0038024000000240DA
:101E18000004024008B50A4B1A6842F400721A60BE
:101E28001A6842F480621A601A6842F480721A6072
:101E38000320FEF7BBFC0F20FEF7F2FC002008BDD4
:101E4800003C024008B5FFF7E5FFFFF70DFBFEF782
:101E58003FFC08BD0A4B1B680A4AA2FB03239B09E7
:101E6800013BB3F1807F0AD24FF0E0225361064B69
:101E7800F02183F82310002393610723136170472F
:101E880010000020D34D621000ED00E000B583B0D3
:101E9800FFF7E0FFFFF77EFFFEF76AFCFFF740FE63
:101EA8006846FFF725FE6846FEF772FCF6E7000075
:101EB800034B1B681BB1024A1368013B1360704750
:101EC8002000002008B5FEF733FAFFF7F1FF08BD40
:101ED80002440346934200D1704703F8011BF9E717
:101EE80053B94AB9002908BF00281CBF4FF0FF3179
:101EF8004FF0FF3000F088B9ADF1080C6DE904CE61
:101F080000F006F8DDF804E0DDE9022304B07047CC
:101F18002DE9F047089D0F4604468C46002B48D112
:101F28008A42164661D9B2FA82F34BB1C3F1200254
:101F380001FA03FC20FA02F29E4042EA0C0C9C4093
:101F48004FEA164EB7B2BCFBFEF1220C0EFB11CCC9
:101F580042EA0C4201FB07F0904209D9B21801F19C
:101F6800FF3C80F0EE80904240F2EB800239324430
:101F7800121AA4B2B2FBFEF00EFB102244EA02448D
:101F880000FB07F7A74209D9341900F1FF3280F0A6
:101F9800DA80A74240F2D7803444023840EA014050
:101FA800E41B00211DB1DC400023C5E90043BDE866
:101FB800F0878B4206D90DB1C5E90001002108461A
:101FC800BDE8F087B3FA83F1002948D1BB4202D3B8
:101FD800824200F20781841A67EB030201209446CB
:101FE800002DE4D0C5E9004CE1E7002A00F092801A
:101FF800B2FA82F3002B40F0A8808A1A4FEA164EF4
:102008001FFA86FC0121200CB2FBFEF70EFB1722FB
:1020180040EA02420CFB07F0904207D9B21807F1D8
:10202800FF3802D2904200F2E2804746121AA4B268
:10203800B2FBFEF00EFB102244EA02440CFB00FC4B
:10204800A44507D9341900F1FF3202D2A44500F2A1
:10205800CB801046A4EB0C0440EA0740A2E7C1F18C
:1020680020068B4022FA06FC4CEA030C07FA01F41E
:1020780020FA06F3F7404FEA1C49234300FA01F817
:102088001FFA8CFEB7FBF9F01C0C09FB107744EA29
:10209800074400FB0EF7A74202FA01F20AD91CEB2B
:1020A800040400F1FF3A80F09B80A74240F2988038
:1020B80002386444E41B9FB2B4FBF9F309FB1344F0
:1020C80047EA044403FB0EFEA64509D91CEB0404A9
:1020D80003F1FF3780F08280A6457FD9023B644434
:1020E80043EA0040A4EB0E04A0FB02E7BC4273469F
:1020F800B94663D360D05DB1B8EB030264EB090461
:1021080004FA06F622FA01F31E43CC40C5E900643E
:1021180000214CE76208480842EAC1710B0C43EA07
:1021280000438AB242EA0342B3FBF6F1E407B4463D
:102138003746B6461F23B0FBF6F0D21B41EA0041F2
:1021480061E7614614E7104628E7C3F1200120FA49
:1021580001F29E4027FA01F19F403A434FEA164E9A
:102168001FFA86FCB1FBFEF70EFB1710110C41EAB3
:10217800004107FB0CF8884504FA03F43AD97118B2
:1021880007F1FF3001D288451FD8A1EB0801B1FB48
:10219800FEF808FB0CF70EFB181192B242EA014256
:1021A800BA422FD2B21808F1FF31C6D2BA42C4D20D
:1021B800A8F102013244C0E7F0459CD2BEEB02030D
:1021C80067EB0C070138B94695E7A6EB08084144C8
:1021D800B81EB1FBFEF808FB0CF7DCE73B467FE7CF
:1021E800504667E70846FBE63444023832E7023FC8
:1021F80032441BE7A1EB08013846B1FBFEF808FBA7
:102208000CF7C8E7414698E7704700BF2E2E2F739A
:10221800797374656D2F7372632F73746D333266BF
:10222800342D68616C2F73746D3332663478785F3F
:1022380068616C5F636F727465782E6300000000DC
:102248002E2E2F73797374656D2F7372632F7374C9
:102258006D333266342D68616C2F73746D3332665A
:102268003478785F68616C5F6770696F2E6300000F
:102278002E2E2F73797374656D2F7372632F737499
:102288006D333266342D68616C2F73746D3332662A
:102298003478785F68616C5F7263632E6300000056
:1022A8002E2E2F73797374656D2F7372632F737469
:1022B8006D333266342D68616C2F73746D333266FA
:1022C8003478785F68616C5F7274632E6300000015
:1022D8002E2E2F73797374656D2F7372632F737439
:1022E8006D333266342D68616C2F73746D333266CA
:1022F8003478785F68616C5F74696D2E63000000E4
:10230800000000000000000001020304060708099D
:0823180000FCFF7F0100000042
:10232000785634121C00002000000000100000004D
:082330000024F40032547698F9
:04000005080001E905
:00000001FF
